:020000040000FA
:20100000000004200D8C0000358C0000378C0000398C00003B8C00003D8C0000000000003A
:201020000000000000000000000000003F8C0000418C000000000000438C0000458C000078
:201040002DAC00002DA20000E5230100478C0000478C0000478C0000C9A80000478C000022
:2010600035FA0000478C0000478C00003DAD0000478C00003DAC0000478C0000478C00004F
:2010800049CD0000478C0000478C0000478C0000478C0000478C0000478C0000478C000075
:2010A000478C0000478C0000478C0000478C0000478C0000478C000000000000000000003E
:2010C000478C0000478C0000478C0000478C0000478C0000478C0000478C00002DC5000059
:2010E000478C0000478C0000478C00000000000000000000478C000000000000478C0000D1
:201100000000000000000000000000000000000000000000000000000000000000000000CF
:201120000000000000000000000000000000000000000000000000000000000000000000AF
:2011400000000000000000000000000000000000000000000000000000000000000000008F
:2011600000000000000000000000000000000000000000000000000000000000000000006F
:2011800000000000000000000000000000000000000000000000000000000000000000004F
:2011A00000000000000000000000000000000000000000000000000000000000000000002F
:2011C00000000000000000000000000000000000000000000000000000000000000000000F
:2011E0000000000000000000000000000000000000000000000000000000000000000000EF
:2012000001F0FF01102A2BDB10F0070F08D010F8013B013A8B422DD010F0070F42B3F6D194
:20122000F0B441EA012141EA014122F007047FF000070023F0E80256083C85EA010586EA41
:20124000010685FA47F5A3FA87F586FA47F6A5FA87F68EB9EED1F0BC01F0FF0102F007023C
:2012600032B110F8013B013A83EA010313B1F8D10020704701387047002D06BF354603389F
:20128000073815F0010F07D1013015F4807F02BF013015F4C03F0130F0BC0138704700BF63
:2012A000D0B5038804463BB15C2B0DD188290FD082290DD00120D0BD80211D4807F05EF969
:2012C0005C2323800120D0BD002303800320D0BD05F00CFDE8B905F0EDFC02460B4652EA96
:2012E000030116D010A7D7E90067D90141EA5261D0018F4208BF86420FD3002908BFB0F5C6
:201300007A7F0DD34FF47A72002314F0FDFD0146D3E708480CF088F8D2E74FF4F051CCE7E7
:201320000121CAE7AFF30080E733750000000000000C0020B80000202DE9F84300202DED9A
:20134000028B55EC104B57EC116B13F0DFF913F05FF913F08BF914F045FA29A3D3E90023FA
:2013600014F0D4FB02460B4643EC182B22A3D3E9002314F013FD08B19FED1F8B13F076F976
:20138000B0EE480AF0EE680A804600F0E5F800224FF0404351EC100B14F08EFA41EC100B6A
:2013A00013F0C6FF404659EC108B14F01BFA14A3D3E9002314F0AAFB13A3D3E9002314F00E
:2013C0007BFA41EC100B00F073F8404653EC102B494614F071FA32463B4614F06DFA22462B
:2013E0002B4614F0B3F8BDEC028B41EC100BBDE8F88300BFAFF3008030058EE42EFF2B2B24
:201400000000C0FFFFFFDF41182D4454FB21194030B59FED1B1B83B09FED1B0B07F014FC0A
:2014200051EC100B14F020FD07EE900ABDEEE77ADFED176A174D184AB8EEC76A17EE103A5F
:2014400077EEC67A284667EEA67A1821FDEEE77A17EE904A002CB8BF644200940FF01EFFA7
:201460000E4A0F490F480BF089FE29460E480BF085FE0E4803B0BDE8304005F013BA00BF01
:201480000000000000003E4000000000008051400000C8428C010020C06C0100C8670100A9
:2014A000CC670100D4670100C86C0100A401002000B551EC100B264A21F00043934285B0E7
:2014C0001EDD244A934209DD10EE102A0B4614F03BF841EC100B05B05DF804FB684600F039
:2014E0008FFA00F00300012811D0022825D0E8B19DED021B9DED000B012001F021FAEAE774
:201500009FED111B00F0B4FC05B05DF804FB9DED021B9DED000B01F013FA53EC102B03F1C2
:20152000004300EE903A05B05DF804FB9DED021B9DED000B00F09CFCCDE79DED021B9DEDFE
:20154000000B00F095FCE8E70000000000000000FB21E93FFFFFEF7F38B52DED028B55ECAB
:20156000104B00F041F81E4BB0EE408AF0EE608A93F9003001331AD022462B4620462946C6
:2015800014F034FC98B9002200232046294614F023FC60B9204629460022002314F0F4FB63
:2015A00060B113F053FE9FED0C8B22230360B0EE480AF0EE680ABDEC028B38BD13F046FE49
:2015C000BDEC028B21230360BDE83840054801F0FBBA00BFAFF30080000000000000F0FF4E
:2015E0003B030020C46B01002DE9F04F51EC100B2DED028BB1F5801F83B00B4657DA21F0FE
:201600000042024300F0FE800029C0F23E81E44B002214F051F9E34A0B4693426FF03507AE
:201620004ADCC3F3130505F5152606F6647606F4801686F07F5282F4401242EA05011C15A9
:201640000022D94B13F080FFAB1CA4F2FF34C3F313033C44022B04EB165482468B464FF088
:20166000000234DC002314F08FFB002800F0D780002C00F06681204614F0B4F8B2A3D3E90E
:20168000002306460F4614F017F9B1A3D3E9002304460D463046394614F00EF902460B4609
:2016A0002046294613F052FF41EC100B0AE0BD4A93424FF00007B4DD02460B4613F046FF3B
:2016C00041EC100B03B0BDEC028BBDE8F08F4FF0804313F03BFF02460B465046594614F0A4
:2016E00015FA02460B46204643EC182B14F07AF853EC182B06460F4651EC180BCDE9006754
:2017000014F0DAF802460B468046894614F0D4F891A3D3E9002306460F4614F0CDF890A345
:20172000D3E9002313F012FF32463B4614F0C4F88DA3D3E9002313F009FF32463B4614F0E6
:20174000BBF88BA3D3E9002313F000FF42464B4614F0B2F888A3D3E90023804689463046EB
:20176000394614F0A9F886A3D3E9002313F0EEFE32463B4614F0A0F883A3D3E9002313F0B1
:20178000E5FE32463B4614F097F80B4602464946404613F0DBFEA5F5C223C5F5D725A3F286
:2017A0007A4351351D43002D06460F465FDD7F4B00225046594614F07FF852465B4614F0A3
:2017C0007BF880468946002C6AD142464B463046394613F0BBFE53EC182B14F06DF802469D
:2017E0000B464046494613F0AFFE02460B465046594613F0A9FE41EC100B03B0BDEC028B2A
:20180000BDE8F08F002200236949002014F07EF941EC100B03B0BDEC028BBDE8F08F5CA3BE
:20182000D3E900235046594614F046F802460B4600205E4913F088FE524606460F465B468F
:201840005046594614F038F802460B463046394614F032F806460F46002C5AD102460B46D2
:201860005046594613F070FE41EC100B2AE7002C40F0A08002460B465046594613F064FEBA
:2018800053EC182B14F018F8AFE710EE102A13F05BFE0022002314F039F941EC100B11E7CD
:2018A00029A3D3E90023DDE9000114F005F842464B4604460D463046394613F047FE53EC83
:2018C000182B13F0F9FF22A3D3E9002306460F46DDE9000113F0F0FF02460B46304639463E
:2018E00013F034FE02460B464046494613F02CFE52465B4613F028FE02460B462046294608
:2019000013F022FE41EC100B03B0BDEC028BBDE8F08F204613F066FF0BA3D3E9002380462E
:20192000894613F0C9FF0AA3D3E9002304460D464046494613F0C0FF02460B46304639467F
:20194000D4E79FED150BBDE60000E0FE422EE63F763C7935EF39EA3D44523EDF12F1C23FA4
:20196000DE03CB966446C73F599322942449D23F935555555555E53F9FC678D0099AC33FA3
:20198000AF788E1DC571CC3F04FA97999999D93F555555555555D53F0000000000000000AA
:2019A00000005043FFFFEF7F0000F03F0000E03F000050C3DDE900890DA3D3E90023404663
:2019C000494613F079FF32463B4604460D465046594613F0B9FD53EC182B13F06DFF06A3DF
:2019E000D3E9002306460F46A2E700BFAFF300800000E0FE422EE63F763C7935EF39EA3DDB
:201A00002DE9F04F53EC102B2DED048B924923F000458D4289B0044640F38F808F498D42E0
:201A20009B462DDCBBF1000F194610EE100A80A3D3E9002340F3C78113F086FD884B9D42D5
:201A400006460F4600F091807BA3D3E9002313F07BFD02460B46C4E900233046394613F00B
:201A600073FD75A3D3E9002313F06EFDC4E902014FF0010A504609B0BDEC048BBDE8F08FEC
:201A800078498D4240F3948077498D4210EE100A61DC4FEA255AAAF2164AA5EB0A51164690
:201AA0000F4614F0B9F913F09DFE804689463046394642464B46CDE9028913F045FD6B4B9E
:201AC000002213F0F9FE0F46064614F0A5F9054613F088FE02460B4630463946CDE9042368
:201AE00013F032FD614B002213F0E6FE02460B46CDE906230022002314F046F9002800F0E7
:201B00006081002D0CBF01230223594A019202215246009102A8214600F0EAFABBF1000F81
:201B20008246A7DA6268E36802F1004203F10043C0F1000A6260E3609CE7002000214FF018
:201B4000000AC4E90201504684ED000B09B0BDEC048BBDE8F08F194613F0F6FC4FF0000A07
:201B6000C4E90201C4E9000184E735A3D3E9002313F0EAFC34A3D3E9002306460F4613F0A2
:201B8000E3FC02460B46C4E900233046394613F0DBFC2DA3D3E9002313F0D6FC4FF0010A60
:201BA000C4E90201504609B0BDEC048BBDE8F08F13F0BCFC57EC106B10EE100A24A3D3E9B6
:201BC0000023394613F078FE2A4B002213F0BEFC14F022F9824613F005FE15A3D3E9002312
:201BE0008046894613F068FE02460B463046394613F0AAFC10A3D3E9002306460F464046F7
:201C0000494613F059FEBAF11F0F49EC198B47EC186B8046894631DC174B0AF1FF3253F8F8
:201C20002230AB422AD002460B4630463946A4E000004054FB21F93F3163621A61B4D03D3F
:201C40000000601A61B4D03D7370032E8A19A33B83C8C96D305FE43FFB21E93F7BD9024046
:201C6000FB21F93FFB213941FFFFEF7F00007041B87001000000E03F3870010042464B4653
:201C800051EC180B13F060FC0A46C2F30A53C3EB1553102B0146064617464FEA255573DDDF
:201CA00069A3D3E9002351EC190B13F005FE59EC188B06460F4632463B4618EE100A4946A1
:201CC00013F042FC41EC180B404653EC182B494613F03AFC32463B4613F036FC5CA3D3E9BA
:201CE000002306460F4651EC190B13F0E5FD32463B4613F029FC8046894642464B4651ECCE
:201D0000180B13F021FC0A46C2F30A53ED1A312D01460646174637DD50A3D3E9002351ECA6
:201D2000190B13F0C9FD56EC185B8046894642464B4618EE100A314613F006FC41EC180B67
:201D4000314653EC182B284613F0FEFB42464B4613F0FAFB43A3D3E9002306460F4651EC6C
:201D6000190B13F0A9FD32463B4613F0EDFB8046894651EC180B42464B4613F0E5FBC4E914
:201D8000000106460F4601E0C4E9001232463B4651EC180B13F0D8FB42464B4613F0D4FBE7
:201DA000BBF1000FC4E90201BFF664AE07F1004501F10043C4E90065C4E90203CAF1000AF6
:201DC00058E60323A1E613F0C1FB234B9D4206460F4616D01AA3D3E9002313F0B7FB0246EC
:201DE0000B46C4E900233046394613F0ADFB14A3D3E9002313F0AAFB4FF0FF3AC4E90201BC
:201E000038E611A3D3E9002313F0A0FB10A3D3E9002306460F4613F099FB02460B46C4E963
:201E200000233046394613F08FFB09A3D3E9002313F08CFB4FF0FF3AC4E902011AE600BF01
:201E40003163621A61B4D03D0000601A61B4D03D7370032E8A19A33BFB21F93F0000002E9D
:201E60008A19A33BC14920259A837B39000000002DE9F84F57EC106B27F00049B9F1795FC4
:201E80002DED048B5BEC11AB71DA10EE100A394613F0C2FF002800F0F68032463B463046F3
:201EA000394613F009FD7CA3D3E9002304460D4613F002FD7AA3D3E9002313F047FB224654
:201EC0002B4613F0F9FC78A3D3E9002313F03CFB22462B4613F0F0FC75A3D3E9002313F0A3
:201EE00035FB22462B4613F0E7FC73A3D3E9002313F02AFB22462B4613F0DEFC70A3D3E951
:201F0000002313F023FB22462B4613F0D5FC41EC180B714B00222046294613F0CDFC53ECC2
:201F2000182B804689462046294613F0C5FC52465B4604460D463046394613F0BDFC024661
:201F40000B462046294613F0FFFA02460B464046494613F0F9FA02460B4600205F4913F057
:201F6000F3FABDEC048B41EC100BBDE8F88F10EE102A10EE100A3B46394613F09DFC46A3F3
:201F8000D3E9002304460D4613F096FC44A3D3E9002313F0DBFA22462B4613F08DFC42A348
:201FA000D3E9002313F0D0FA22462B4613F084FC3FA3D3E9002313F0C9FA22462B4613F0B6
:201FC0007BFC3DA3D3E9002313F0BEFA22462B4613F072FC3AA3D3E9002313F0B7FA2B46E5
:201FE000224613F069FC3E4B994541EC180B90DD3C4B99453CDC0022A9F5001337490020FD
:202000009046994613F0A0FA41EC190B324B00222046294613F050FC42464B4613F094FAB0
:2020200053EC182B804689462046294613F044FC52465B4604460D463046394613F03CFC6B
:2020400002460B462046294613F07EFA02460B464046494613F078FA02460B4651EC190B7A
:2020600013F072FABDEC048B41EC100BBDE8F88F9FED157BDFF87090B0EE479AF0EE679AF4
:202080004FF00008C2E7BDEC048B9FED110BBDE8F88F00BFAFF30080D43888BEE9FAA8BDC9
:2020A000C4B1B4BD9EEE213EAD529C804F7E923E9015CB19A001FA3E7751C1166CC1563FD4
:2020C0004C5555555555A53F000000000000E73F000000000000F03F0000E03F0000F03F84
:2020E0003233D33F0000E93F0000D23F000000002DE9F04FADF5197DBB4CA29D089354F876
:2021000025400594013B12F1140F04900B910393C0F22683B549D31E81FB0301DB17C3EB2F
:20212000A10307930133A3EB8303DB00D3180693079A039BD41A059AD6181AD40136A39F99
:202140004FF000084FF00009264420AD08E057F8240013F047FB0134B442E5E8020108D046
:20216000002CF4DA013440464946B442E5E80201F6D1059B002BC0F2C883089BDDF80C90B2
:20218000DA000292059A1A440192049A20A901EBC30A0DF5E07B02EBC308039B002B4FF004
:2021A00000044FF0000511DB049E574677E90223F6E8020113F080FB02460B46204629465A
:2021C00013F0C4F9464504460D46EFD1019B09F101099945EBE802450AF1080ADDD1059A65
:2021E00004980CA901EB820302990144083B8B460BA90993134601EB82020A920193019A45
:2022000098A901EBC203002A53E928452ADD0DF5E07909EBC2080DF1300A754B0022204659
:20222000294613F049FB13F0F7FD13F0DBFA714B002206460F4613F03FFB02460B4620465E
:20224000294613F081F913F0E7FD044678E902234AF8044B3046394613F078F9C84504468A
:202260000D46DAD1DDF8189045EC104B484600F0B3FC55EC104B00224FF07F5310EE100A43
:20228000294613F019FB41EC100B00F019FC5A4B51EC100B002213F00FFB02460B46204640
:2022A000294613F051F90D46044613F0B5FD804613F098FA0B4602462946204613F044F907
:2022C0004B46002B06460F4640F39880019A0CA9013AC9F1180351F8225045FA03F101FA0D
:2022E00003F3EB1AC9F117050CA843FA05F5002D40F82230884400F38B80002200233046E6
:20230000394613F041FD002800F05682019B059A03F1FF3A524510DC03F180430CAA013B79
:202320000A9802EB8303002253F80419834242EA0102F9D1002A40F0DC80059B0CAA013BF8
:2023400052F82330002B40F0CF80099A012352F8041901330029FAD001994A1CCB18029369
:202360009146079B089902EB030A019B0B44984620AB0AF1804A03EBC808A39B0AF1FF3AC0
:2023800003EB8A0A70AB03EBC20301935AF8040F13F028FA0B46039902460029C8E900239D
:2023A00047464FF0000408F108084FF0000511DB049E01E077E90223F6E8020113F07CFAB2
:2023C00002460B462046294613F0C0F85E4504460D46EFD1019BE3E802450193029B09F1FB
:2023E00001099945D2DD09E7C0710100ABAAAA2A0000703E00007041000020406BD1019B64
:202400000CAA013B52F82350ED15002D7FF775AF019B002B08F1010840F3CC810C9C002C27
:2024200051D1019B012B20D00CAB012253F8044F002C4BD0531C0CA9C4F1807441F822409B
:202440000199994210DD0CAA0CA852F8232000EB830300EB81006FF07F4100E01A688A1A21
:2024600043F8042B8342F9D10124069B002B0EDD012B00F06A81022B09D1019B5A1E0CABAE
:202480000CA953F82230C3F3150341F82230022D7FF433AF32463B46B949002013F054F8A3
:2024A00006460F46002C3FF428AF06989FEDB00B00F092FB3046394653EC102B13F044F835
:2024C00006460F4619E701230022B4E7019901328A42ABD1C9E7AB4B002213F073FC002803
:2024E00040F05681054608E7019B5A1C9146029237E70CAB069A53F82A30CDF81C80183A51
:202500000395069273B9019B03F18043023B0CA901EB830353F804190AF1FF3A183A002991
:20252000F8D006929FED920B069800F055FBBAF1000F55EC104BC0F2DE8170AB03EBCA0BEF
:202540000CAA0AF10103069302EB83084FEACA030BF10809049358F8040D13F043F9224603
:202560002B4613F0A9F906460F46874B2046294669E90267002213F09FF90CAB98450446A7
:202580000D46E8D148ABCDE9013ADDF814A0BAF1000F4FF000092CDB77A3D3E90023DFF8E9
:2025A000EC815F4600240025002603E0B14510DBF8E80223F7E8020113F07EF902460B46DC
:2025C0002046294612F0C2FF0136B24504460D46ECDA019B029A03EBC9034A45C3E9004560
:2025E000ABF1080B09F1010306D0BAF1000F9946D2DA00240025ECE7A29BDDF808A0022B10
:202600001EDC002B00F30F8113D1049C019D0834002000212C4474E9022312F097FFA54202
:20262000F9D1039B13B101F1004319460B9BC3E90001079B03F007000DF5197DBDE8F08F2F
:20264000A29B032BF5D1BAF1000F00F07081019A049BD318D3E9004502EBCA0B7BE90267F9
:202660002046294632463B4612F070FFA046A94604460D4622462B463046394612F064FF76
:202680004B46424612F062FF019B5B45CBE90045CBE90201E2D1BAF1010F40F34881019ACD
:2026A000049B0AF1005A0AF1FF3A13444FEACA01D3E9004501F1080A029192440DF5947B18
:2026C0007AE902672046294632463B4612F03EFFA046A94604460D4622462B4630463946E1
:2026E00012F032FF42464B4612F030FFD345CAE90045CAE90201E3D1029C019B002600275C
:2027000010341C4403F110053046394674E9022312F01CFFA542F9D106460F46039B002B5D
:2027200040F0BF80019A0B99D2E90045D2E90223C1E90223079B03F00700C1E90467C1E9E1
:2027400000450DF5197DBDE8F08F019B5A1E0CAB0CA953F82230C3F3160341F8223096E685
:2027600000216FF017030791E0E400BFAFF30080000000000000F03F00000040FB21F93FBF
:202780000000F03F0000E03F0000703ED8650100019B002B08F10108C8BF02253FF73EAE66
:2027A00032463B466349002012F0CEFE022506460F46A2E5002458E6069B0395584247ECCF
:2027C000106BCDF81C8000F007FA55EC104B5A4B10EE100A0022294613F0F4FA002856D003
:2027E000564B00222046294613F066F813F014FB064612F0F7FF504B002213F05DF80B4624
:2028000002462946204612F09FFE13F005FB069B019C183304F1010A06930CAB43F82400C1
:2028200043F82A607EE6019D069A002005EBC204002174E9022312F089FEA542F9D1039BE0
:20284000002B48D10B9BC3E900010B4601990246D1E9000112F078FEBAF1000F0DDD4AADE0
:202860000124F5E80223013412F070FEA245F8DA039B13B101F1004319460B9BC3E9020188
:20288000079B03F007000DF5197DBDE8F08F2046294613F0C1FA019B0CAA9A4642F82300BE
:2028A00040E6019B19465A68DB680D688C680B9903F10043CB60079B0D6002F100424A6095
:2028C00003F0070007F100428C600E614A610DF5197DBDE8F08F0B9C01F10043C4E9000376
:2028E0000B4601990246D1E9000112F02DFEBAF1000FB4DCBEE7A29B022B0ADC002B11DC66
:202900007FF497AE002000218BE6089BDB00029365E4A29B032B7FF48CAE48AB0026002799
:202920000193FBE648AB00200021019387E700260027F3E60000F03F000070410000703E38
:202940002DE9F04F55EC104B85B025F00043B3F1795F8DED001B039007DA10EE100A2946ED
:2029600013F05AFA002800F0898022462B462046294612F0A1FF06460F4632463B4620468F
:20298000294612F099FF43A3D3E9002382468B463046394612F090FF40A3D3E9002312F086
:2029A000D3FD32463B4612F087FF3EA3D3E9002312F0CCFD32463B4612F07EFF3BA3D3E929
:2029C000002312F0C1FD32463B4612F075FF39A3D3E9002312F0BAFD039B80468946ABB3A0
:2029E000DDE900012A4B002212F066FF42464B46804689465046594612F05EFF02460B4637
:202A00004046494612F0A0FD32463B4612F054FFDDE9002312F098FD1BA3D3E9002306464B
:202A20000F465046594612F047FF02460B463046394612F08BFD02460B462046294612F03C
:202A400083FD41EC100B05B0BDE8F08F02460B463046394612F030FF0BA3D3E9002312F087
:202A600073FD52465B4612F027FF22462B4612F06DFD41EC100B05B0BDE8F08F45EC104B93
:202A800005B0BDE8F08F00BF495555555555C53F0000E03F7CD5CF5A3AD9E53DEB9C2B8A9E
:202AA000E6E55A3E7DFEB157E31DC73ED561C119A0012A3FA6F810111111813F0000000070
:202AC00051EC100BF8B5C1F30A53A3F2FF35132D10EE106A0C4620DC002D3DDB384F2F41D5
:202AE00001EA070303431DD033A3D3E9002312F02DFD0022002313F06FF948B1002C04DA1A
:202B00004FF4801343FA05F52C4424EA070400262346324643EC102BF8BD332D05DDB5F50D
:202B2000806F29D041EC100BF8BDA3F213434FF0FF37DF400742F5D01FA3D3E9002312F080
:202B400005FD0022002313F047F90028E0D0002C23DB26EA0706DBE717A3D3E9002312F06F
:202B6000F5FC0022002313F037F90028D0D0002C0ADB00263446CBE710EE102A0B4612F036
:202B8000E5FC41EC100BF8BD24F000430D4A1E43002E18BF14460026BAE7142D08D00123E5
:202BA000C5F1340503FA05F5AE1928BFE418D0E70134CEE7AFF300809C7500883CE4377E54
:202BC000FFFF0F000000F0BF9FED010B704700BF000000000000F87F38B553EC102BC3F397
:202BE0000A511C46054681BB10EE101A23F00044214329D0194600223D4B3E4C10EE100A0A
:202C000012F05AFEA54202460B4616DB0C46C1F30A513639294440F2FE70814221DC002923
:202C200047DC11F1350F34DA4CF250318D4218DC002B27A1D1E9000144DB25A3D3E9002327
:202C400012F03AFE41EC100B38BD40F2FF708142E0D110EE100A194612F078FC41EC100BB3
:202C600038BD002B1CA1D1E9000107DB1AA3D3E9002312F021FE41EC100B38BD18A1D1E96D
:202C8000000115A3D3E9002312F016FE41EC100BF3E724F0FF4424F4E004363144EA015328
:202CA000104619460022144B12F006FE41EC100B38BD24F0FF4424F4E00444EA015343EC97
:202CC000102B38BD08A1D1E90001B6E7AFF3008059F3F8C21F6EA5019C7500883CE4377EFA
:202CE0009C7500883CE437FE59F3F8C21F6EA58100005043B03CFFFF0000903C10B5054CCE
:202D0000237833B9044B13B10448AFF300800123237010BD9007002000000000DC72010021
:202D200008B5034B1BB103490348AFF3008008BD0000000094070020DC720100A3F5803AE2
:202D4000704700BF174B002B08BF134B9D46FFF7F5FF00218B460F461348144A121A13F04F
:202D600085FA0E4B002B00D098470D4B002B00D098470020002104000D000D48002802D0CE
:202D80000C48AFF3008011F045FB2000290004F0C3FE11F02BFB00BF000008000000000090
:202DA0000000000000000420480300203C330020000000000000000000B585B003460021A1
:202DC00001AA44F20100CDE90111039300F004F805B05DF804FB00BF72B6094B1B68DB071E
:202DE00000D500BEBFF34F8F0649074BCA6802F4E0621343CB60BFF34F8F00BFFDE700BF32
:202E0000F0ED00E000ED00E00400FA050378052B02D0094B1B681847084BD3F88424D3F8E1
:202E2000803413F0FF0FF4D1054BD2B2052A08BF1846014B1B681847AC070020007002402D
:202E400028660100014B02481B681847AC0700202C660100012803D0022809D020B170477E
:202E6000054B06481B681847034B05481B681847014B04481B681847AC0700202066010081
:202E80001C660100246601002DE9F04F87B0002504460F4690469946029500E001356268A8
:202EA000012356682146002202A8B0470028F5D18DF80600049065B3824683460AE09DF8D1
:202EC00006306668023B7668B0479DF806309B445D451ED962680123566821460DF1060280
:202EE00004A8B04762680123566821460DF1070204A8B0479DF80730BB424FF00002214601
:202F000004A8DCD1D04508D00AF1010A5FFA8AFAD5E7052007B0BDE8F08F109A9DF8063057
:202F2000136089F8003089F801706168023B4D6809F102022146A847002007B0BDE8F08F71
:202F4000F0B5054683B03B4808F01CFE044610B1204603B0F0BD384A3849394B14700C6071
:202F60004822214637481C6013F080F936482146482213F07BF9002D54D095E80700334BF0
:202F800083E80700002847D0002007F049FA08B1852844D12E4D2B7A002B49D0013BDBB27E
:202FA00005F10C024FF0030E6E68274FDFF894C01EFB032E05F109046378EBB1A278611CEB
:202FC0001144013B51FA83F1224408E003F00F0307EBC30391421D60306858600CD012F810
:202FE000013B1806F2D503F00F030CEBC30391421D6030685860F2D103347445DCD10B23C0
:203000008DF804301248336801A99847044600289ED008F0F9FD9BE70E4A1A60B4E7FFF7C6
:20302000CBFEB7E7094B0B4A5D601D721A60ABE76E68E4E70D2E0000AD28002048080020E7
:203040004C080020B807002000080020AC070020586601001D34000010B508F0EFFE68B14F
:2030600008F0F4FE044648B9064807F0EDF9034628B1FFF7A1FE2346184610BD082318461C
:2030800010BD00BF1866010008F0C8BD09F0C6BC4FF0804303E0D3F83824D10707D5D3F8A2
:2030A00038249207F7D5024B02481B6818477047AC0700203066010000B5054B83B08222D9
:2030C0001B688DF8042001A8984703B05DF804FBAC0700202DE9F043057A83B0002D5ED00C
:2030E00005F1FF3E5FFA8EF300F10C024FF0030E00F10901334FDFF8D4C01EFB032E0C46F0
:2031000066780022964204EB020319D094F8028013F9089013F80830B9F1000F0BDB03F073
:203120000F0307EBC3031B680132002BEAD0112003B0BDE8F08303F00F030CEBC303F2E793
:203140000334A645DCD100261E4FDFF880C0324602EB42020A445378EBB1002423460CE01F
:2031600003F00F0307EBC303186045682D685D6055780134E3B29D420CD99578134413F950
:2031800005E05B5DBEF1000FEADA03F00F030CEBC303E9E7057A0136F2B29542D8D80A4A49
:2031A00013681BB11A681368002BFBD1106043680B228DF804201B6801A9984703B0BDE87F
:2031C000F08300BF0008002048080020B8070020024B1878003818BF01207047AC2800208E
:2031E000030710B5044604D52046BDE8104009F0ADBA08F0C5FF204609F000FB2046BDE801
:20320000104009F0A3BA00BF09F0E6BC014B1868704700BF48080020F0B40E4B1F688FB138
:203220003E7A96B100231C463A4602E0DCB2A6420BD9557A854203F1010302F10302F5D102
:2032400001B10C703846F0BC70473B681F68002FE6D1F7E748080020436811461B6818471D
:2032600000F00F03082B0AD802064CBF054A064A02EBC303186810B143681B6818471020D4
:20328000704700BFB80700200008002038B5094B1C6864B1054602E023681C683CB16368E3
:2032A00029461B68204698470628F5D038BD062038BD00BF4808002038B50D46044608F023
:2032C00031FE18B1054B1B78022B01D0082038BD29462046BDE8384008F034BEAD28002027
:2032E00038B50D46044608F01DFE18B1054B1B78022B01D0082038BD29462046BDE8384078
:2033000008F0B2BEAD280020F8B543689B6805460C4616461BB19847062800D0F8BDEEB9F7
:203320002B7AA3421CD9093504EB44042C44677897B133463A469A420BD9A378A21901363C
:20334000D05CFFF74DFFF3B2BB4205D262789A42F3D800231B78FFDE0020F8BD0720F8BDC1
:203360007378FFDE70B54368DB6805460C4603B198472B7AA3421AD9093504EB44042C44E0
:2033800066789EB100252B46324693420BD2A37862190135D05C09F01FFCEBB29E4205D9D9
:2033A00062789342F3D300231B78FFDE70BD00235B78FFDE43681B6903B1184718467047AE
:2033C00070B50A4B1D687DB12E7A4EB100242146013400222846FFF797FFE1B2B142F7D3ED
:2033E0002B681D68002DEFD170BD00BF4808002070B5094B1D6875B12E7A46B1002421461E
:2034000001342846FFF7AEFFE1B2B142F8D32B681D68002DF0D170BD4808002070B50378D2
:203420000446852B00F2BF80DFE813F00002B201BE003A026602E300EA00BD0004011701D9
:203440002A01BD00BD00BD00BD003D01BD00BD00BD00BD00BD00BD00BD00BD00BD00BD00AD
:20346000BD00BD00BD00BD00BD00BD00BD00BD00BD00BD00BD00BD00BD00BD00BD00BD007C
:20348000BD00BD00BD00BD00BD00BD00BD00BD00BD00BD00BD00BD00BD00BD00BD00BD005C
:2034A000BD00BD00BD00BD00BD00BD00BD00BD00BD00BD00BD00BD00BD00BD00BD00BD003C
:2034C000BD00BD00BD00BD00BD00BD00BD00BD00BD00BD00BD00BD00BD00BD00BD00BD001C
:2034E000BD00BD00BD00BD00BD00BD00BD00BD00BD00BD00BD00BD00BD00BD00BD00BD00FC
:20350000BD00BD00BD00BD00BD00BD00BD00BD00BD00BD00BD00BD00BD00BD00BD00BD00DB
:20352000BD00BD00BD00BD00BD00BD005101860060011C02E301E3008C4B8D49D3E9000294
:2035400090478C4B1C684CB1894D636820461B682946984723681C68002CF6D1864C6368C5
:203560000BB10D209847FFF743FF01F075FB834B1B68002B00F0FD810120814D08F02CFCF1
:203580002A78931EDBB2062B00F215827D49CB5C13B106F02BFF2A78022A40F00C8208F03C
:2035A00097FC01232B7070BD754D2A78931EDBB2062B00F2CD817349CB5C13B106F016FFC7
:2035C0002A78022A40F0C48108F082FC6A4B5B6803222A700BB102209847664B1D6845B112
:2035E0006B6828461B68214698472B681D68002DF6D15E4B2146D3E90002BDE8704010473B
:2036000090F902308278002BB4BF5F4B574B02F00F0203EBC203D3E9000221469047002831
:20362000C1D0A0780207BED00307BCD4BDE8704008F078BD504B5B680BB1082098474D4B75
:203640001D68002DAFD06B6828461B68214698472B681D68002DF6D1A5E7474B5B680BB186
:2036600009209847434B1D68002D9CD06B6828461B68214698472B681D68002DF6D192E707
:203680003D4B5B680BB10A2098473A4B1D68002D89D06B6828461B68214698472B681D6868
:2036A000002DF6D17FE7344B5B680BB10F209847304B1D68002D3FF476AF6B6828461B685B
:2036C000214698472B681D68002DF6D16BE72C4C2378062B00F04F8103F0FD03052B7FF4AC
:2036E00062AF08F0FFFB0223237070BD244DFFF77FFE09F087F92A78931EDBB2062B31D86B
:203700002049CB5C13B106F071FE2A78022A29D108F0DEFB174B1C6800232B704CB11B4E4D
:20372000636820461B683146984723681C68002CF6D10E4B1549D3E9000290470E4B5B6815
:203740000BB10E2098472B78023BDBB2062B3FF62AAF0C4AD35C002B3FF425AFBDE87040E8
:2037600006F044BE082AD5D1D2E700BF000800203466010048080020AC0700204C08002087
:20378000AD28002010660100B8070020386601009C4DFFF72DFE01F055FA2A78931EDBB215
:2037A000062B00F2D9809849CB5C002B00F0D480022A03D0082A01D008F094FB934B5B68EC
:2037C00002222A700BB101209847914B2146D3E9000290478F4B1D68002D3FF4E4AE6B6873
:2037E00028461B68214698472B681D68002DF6D170BD844D2B78032B00F0C68008F030FB5E
:2038000000283FF4D0AE2A78931EDBB2062B40F2EB80814806F0BCFD2A78022A01D0082AD8
:2038200001D108F055FB06232B7070BD754B1B78032B00F0A580082B00F0A280734B5B6821
:203840000BB100209847754B1D68002D3FF4ABAE6B6828461B68214698472B685D68002D20
:20386000F6D170BD674D2B78032B7FF49CAE09F005F900283FF497AE2A78931EDBB2062B6A
:2038800000F2BB806049CB5C13B106F0AFFD2A78022A40F0B28008F01BFB04232B7070BD98
:2038A000584D2A78082A5CD0931EDBB2062B00F286805549CB5C002B00F08180022A00F0FF
:2038C000878005232B70514B5B680BB1032098474F4B2146D3E9000290474E4B1D68002D20
:2038E0003FF461AE6B6828461B68214698472B681D68002DF6D170BD444B5B680BB1032012
:203900009847434B4649D3E900029047414B1C684CB1434D636820461B68294698472368EC
:203920001C68002CF6D1374D2B78062B1ED0082B0BD09A1ED2B2062A4DD833498A5C002A9F
:2039400049D0022B01D008F0CDFA02232B7070BD082A7FF43BAE37E62F4806F019FD2A78D4
:2039600026E702232B7008F0C7FAACE707232B7070BD207A01E608F0B5FA0823237070BD29
:203980002848FFF74BFD59E709F078F800283FF435AF2A78931EDBB2062B2BD81A49CB5CF3
:2039A00013B106F023FD2A78022A23D108F090FA04232B7022E7082A7FF4F3ADEFE51648A7
:2039C00006F0E6FC2B78022B02D0082B7FF479AF08F07EFA75E7104806F0DAFC2B78022BDF
:2039E000B3D0082BB1D0AEE70749CB5C002B7FF414AF0EE7082ADBD1D8E7082A7FF44DAFF0
:203A000049E700BFAD28002010660100AC0700200008002048080020080000204C08002044
:203A2000406601003C6601004360CA699A4205D38A6902600B67CB610020704701F12802CC
:203A400002608B6700207047F0B504680E7A002C00F07284A4F212347C2C00F2C1827C2C2F
:203A600000F2BE82DFE814F074020003DE02CF02C7022A0307032303BC02BC02BC02BC0201
:203A8000BC02BC026702D702BC02BC02BC02BC02CC010F03E602BC02BC02BC02F401EE0389
:203AA0008C03BC02BC02BC02BC02FF00CB034803BC02BC02BC02BC02BC02BC026402BC02CF
:203AC000BC02BC02BC0219019B039303AC035703BC02BC02C3038403B40339035F03BC0279
:203AE000BC024103DB015003ED00BC02BC023203DB00F503BD00BC03BC02BC02BC02BC02B0
:203B0000BC02BC02BC02BC02BC02BC02BC02BC02BC02BC02BC02BC02BC02BC02BC02C900BA
:203B2000D303BC02BC02BC026703BC02BC02BC02BC02AC00BC02BC02BC02BC02AC00BC0205
:203B4000BC02BC02BC02BC02BC027D00C002BC02BC02BC02BC02B800BC02BC02BC02BC02C8
:203B6000B80001240025002A00F0CD8307795755A3424FF00005057140F27C831719013478
:203B80003D70B04D0F7D2D682D78AF4200F0B0838F7DAF4209D10025A342057140F24D8546
:203BA000254601340AB107795755DFF8A0C2A64F9CF800503F780135EDB28CF800507BE1B0
:203BC000012500240AB1077917554024AB42047140F289836C1CC6E701240025002AE2D194
:203BE000E3E701240025002A40F031848D7D0571A34240F262830134FFE001250024002A9E
:203C000000F03D8307791755AB424FF00504047140F27E83274602EB050C6C1CFDE2012533
:203C20000024002A40F011840624AB42047140F23F8301350C7D0471AB4240F291836C1C02
:203C4000D4E701250024002A40F003840524AB42047140F228836C1C2425A342057140F2B8
:203C60007583651CE0E701240025002A00F0FA83077957554FF0000CA34280F804C040F259
:203C80009084651C0027AB4202F804C0077140F2F383541901352770F3E001250024002A1C
:203CA00000F0EF8307791755AB424FF02404047140F2C183274605F1010C0024634557558F
:203CC000047140F2A98325460CF101071024BB4202F80C50047140F29083254607F1010CF0
:203CE00001246345D555047140F2788325460CEB04070524BB4202F80C50047140F25D83BB
:203D0000254607F1010C24246345D555047140F24A8325460CF101070124BB4202F80C50BD
:203D2000047140F23683254607EB040C03246345D555047140F228830CF1010702F80C4020
:203D4000BB4291F816C080F804C040F218837C1C0425A34202F807C0057140F20B8302EB74
:203D6000040C2F4601342425A3428CF80070057140F2FB822F46651C1755AB424FF00204AE
:203D8000047140F29F82274602EB050C6C1C0225A3428CF80070057140F2DD822F46651C6B
:203DA0001755AB424FF00504047140F27C82274602EB050C6C1C2425A3428CF80070057132
:203DC00040F2C4822F46651C1755AB424FF00604047140F26D82571901353C700F7D0771E7
:203DE000AB4240F2BD826C1C5755A3428D7D057140F26382171901343D70124D2D6851E07E
:203E000001270024002A00F04082057915559F424FF00004047180F0F5827D1C39E1012539
:203E20000024002A40F017830224AB42047140F249826C1C0225A342057140F28C82651C1A
:203E400004E700BF50080020AE280020B028002001240025002A00F09883077957559C42C9
:203E60004FF00205057180F05883671C1555BB424C7E047140F2E48202EB070C7D1C8CF85D
:203E800000400024AB42047140F221826C1C0AB107795755C64D91F814C02D682F78BC456B
:203EA00000F01A82DFF810E3DFF810C36F788EF8007000258CF80050BD423FD3BD4F3D785A
:203EC0000135EDB23D70AE4240F2CA810925A342057140F25583651C002A00F012830779B0
:203EE0001755AB424FF00404047140F2B682274602EB050C6C1C8CF800700F7AAD4D2D7834
:203F0000AF4240F2AC8305EB450501F10907DFF8A0C217F805E080F804E03D449C42CCF867
:203F2000005080F07E82671C002A7FF46EAFACE101240025ABE701250024CDE70725A3420C
:203F4000057140F29281651C002A7FF45BAE96E1002A00F0EB8204791470012B4FF00B0406
:203F6000047140F2238302250127D455AB420F7D077140F25B8205F1010C022463455755FF
:203F8000047140F2448225460CF101070224BB4202F80C50047140F22B82254607F1010C07
:203FA00002246345D555047140F213820CF1010702F80C40BB4291F819C080F804C040F2B5
:203FC000F7817C1C0025A34202F807C0057140F2E581171901343D70764F00253D7072E7F6
:203FE000002303601846F0BD002A00F0F282057917460124C4E5002A00F0F28205794FF0AE
:20400000010C0027CCE7002A00F0EC82057901274FF0000CBAE7002A00F0FF8207799446AA
:20402000012468E7002A00F0D78207794FF0010C0025A2E75E4C002A00F0E68207792468E7
:20404000944601258CF8007024780F7DA74200F0B9818F7DA7427FF414AF0A249D42047184
:2040600080F0F5826C1C00E6002A00F0D28204790125002779E7002A00F0B08290F804C0BB
:20408000012400279EE7002A00F0C182047901250027DFF81CC1D455DCF80040AB4267786B
:2040A000077140F2A08102EB050C0135CAE7002A00F0B1820579174601248CE7002A00F076
:2040C0008482047901274FF0000C71E7002A00F0A7820779944601246DE6002A00F08E8253
:2040E000047901274FF0000C28E6002A00F0A18207799446012436E6002A00F000821446F4
:20410000077927700125BCE6002A00F08E820779944601243BE6002A00F072820579012742
:204120004FF0000CE5E5002A00F0608290F804C0012400270CE61E4C0125276800241AB1D6
:2041400090F804C002F804C03C780F7DA74200F0E9808F7DA7427FF438AD0224AB420471FE
:2041600040F270822C460135002A7FF42CAD2CE5002A00F04782057901274FF0000CCBE568
:20418000002A00F0BC8104799446012577E6002A00F01682057901274FF0000C96E5002AA6
:2041A00000F0458207794FF0010C002585E500BF50080020AF280020AE280020B0280020D1
:2041C000002A00F0308205794FF0010C002787E5002A00F00F8205794FF0010C0027A5E590
:2041E000002A00F0F48105791746012404E6002A00F0218205794FF0010C002783E5002A06
:2042000000F0F68190F804C0012500243AE5002A00F0EA810779944601248CF80070C14F7A
:20422000C14D3F682D7897F801C0AC4540F2148297F802C03D44A34215F80C5005716CD940
:20424000651C7CE7002A00F0D7810579012700240CE6002A00F0B681047917460125BCE55A
:2042600040F2993303600120F0BD40F26D3303600120F0BD4FF4617303600120F0BD05249B
:20428000AB42047144D96C1CC9E79F42027180F0B9807D1CA34C2468AB426778077140F2E0
:2042A000A2800135D0E640F2553303600120F0BD40F2573303600120F0BD40F259330360F7
:2042C0000120F0BD40F2513303600120F0BD4FF44F7303600120F0BD0525A342057140F23C
:2042E0001781651CDBE440F2833303600120F0BD0D6AA3422D7805713FF652AC40F2893335
:2043000003600120F0BDA3420271B3D9013438E440F26E3303600120F0BD40F272330360F9
:204320000120F0BD0324AB4204713FF61BAF40F2773303600120F0BD08240471002B7FF4DB
:2043400007AE40F2123303600120F0BD40F2563303600120F0BD40F2523303600120F0BD2C
:204360004FF4567303600120F0BD4FF4547303600120F0BD40F24F3303600120F0BD4FF49D
:20438000537303600120F0BD40F24B3303600120F0BD40F24A3303600120F0BD40F21933E7
:2043A00003600120F0BD40F2493303600120F0BD4FF4467303600120F0BD4FF45273036055
:2043C0000120F0BD02249D42047180F0F4806C1C40E540F2173303600120F0BD40F24533AD
:2043E00003600120F0BD4FF44A7303600120F0BD40F2163303600120F0BD4FF45173036045
:204400000120F0BD40F2273303600120F0BD40F2153303600120F0BD40F24333036001203A
:20442000F0BD40F2263303600120F0BD4FF4457303600120F0BD40F2423303600120F0BD0F
:2044400040F22E3303600120F0BD0779BCE40779CAE40779A4E407798EE440F22133036067
:204460000120F0BDA342027140F29B80013400259C420571C0F0938040F23533036001203A
:20448000F0BD2424AB420471D5D96C1C00259C420571C1D2013410259C420571ADD2013411
:2044A00001259C42057199D22C4405259C42057183D2013424259C420571BFF474AF0134F7
:2044C00001259C420571BFF464AF2C4403259C420571BFF459AF01348D7D05719C42BFF4AF
:2044E0004EAF01340425A34205717FF643AF01342425A34205717FF638AF651C94E401254B
:20450000BFE40424AB420471A7D90F7A6C1CF5E440F2413303600120F0BD40F22D33036038
:204520000120F0BD50080020B02800200B24012B04713BD902240D7D05719C42BFF476AF7D
:2045400001340225A34205717FF661AF013402259C420571BFF44CAF01340225A34205710A
:204560007FF637AF01344D7E05719C42BFF420AF013400259C420571BFF410AF01342BE5A5
:204580004FF4487303600120F0BD02259C420571C3D201344D7E05719C42BFF451AF651C54
:2045A0006FE44FF44D7303600120F0BD40F2133303600120F0BD4FF44B7303600120F0BD99
:2045C000012468E70125FFF735BB0124CBE7012413E40124FFF7D5BA0124B2E70124C8E72C
:2045E0000124BAE70124B2E7012418E6012479E701243CE7012469E70124CBE701246BE784
:20460000012452E701245BE7246801251CE5012540E601248FE70124DEE4374601246DE461
:204620000124FFF719BB01243AE7012402E401242CE701245CE701243CE740F28E330360FC
:204640000120F0BD4FF45F7303600120F0BD40F2333303600120F0BD00231B78FFDE024A9E
:20466000002313601B78FFDE5008002070B90B681A7B202A01D0062070471A4652F80E1FBC
:204680009961918892799A7799837047032070474360CA699A4210D38A6910B40260C8695F
:2046A0000C6FC01A1C441A44C86100380C6718BF01205DF8044B8A61704701F12802026057
:2046C00000208B67704700BF2DE9F0470B7888B00D4606460E2B14D8DFE803F0081808089C
:2046E000130D281313181308080808000024204608B0BDE8F0874B78DA0930D15B09012B6C
:204700004CD00624204608B0BDE8F0870368002403F134022046C3E91E44C3E920445A671B
:204720001C845C62DC6208B0BDE8F087027A8B78002A00F06581817A0930002900F05E815E
:20474000F17A415C9942D1D01B061ED4EF7807F0FD03012BCAD0002F65D00324C7E713F062
:20476000600FC3F3411200F09180012AC9D18B78212BC6D1B1F80720072AC2D10168681C94
:20478000183100F073FA0446B1E7EC78002C00F09D80032C14BF03240024A8E78B780768A6
:2047A000202B00F09B80222BABD1B1F80730002BA7D1B1F8035097F820303D8405F00102C3
:2047C00003F001039342154690D0C3691BB1C2F10301C9B29847002D88D1337A012B40F2B8
:2047E0000B81737B06F10C04002B00F00381B37BE05C08F06DF9337A012B40F2FD80737B5B
:20480000012B40F2F780B37B23442C46587808F05FF907F13403C7E91E55C7E920557D6246
:20482000FD627B6763E73568012A05F10C0140F2DF80727B012A06F10C0340F2D780069153
:20484000B27B704905911344AC6A93F80180002C60D1EA6FEB6AAC67C5E91F42002B00F01B
:20486000B480296B1846002205F1240383E803004046EA6205A9FEF733FD0446F369002BEF
:204880003FF435AF30460021984730E703F01F03012B7FF436AF8C78062C7FF432AF05A8A4
:2048A000039200F0D5FC03AA00920746EA78297930463B46FEF7E8FA05283FF418AF039A80
:2048C0003946681C00F0D2F9044610E7F369002B3FF40CAF30460121984708E7B1F807202E
:2048E000072A7FF40EAF3B73B1F80730DBB27B7300200E37CDE90573079000F08BFF00208A
:2049000005A9FEF7D9FC0446002867D0002000F089FFECE6D5F88490686A4C4528BF4C464F
:2049200005F1340A2246514611F078FCE86FEA6AEF67A9EB04030AEB04010444C5E91D1313
:20494000C5F88040002A43D005F12C0797E8030005F12404002284E80300EA62002B3BD0C1
:2049600091461BE0696F686A11F058FCD5E91D32A96AC5F880100B44521AC5E91D32F369E5
:2049800013B1002130469847EB6A13B397E8030084E80300AB6FC5F82C90EBB1AA6A9342B9
:2049A000E0D2696F686A1A4611F038FCD5E90932A96FE967521A0B44C5E9093253B1404677
:2049C00005A9FEF78DFC044658E700236B6255E700236B62002451E76B6AEFE70A4B049610
:2049E00003A9039300F020FC04468FE73B78FFDE7B78FFDE2B78FFDE6B78FFDE0B78FFDEA9
:204A00005378FFDE914600006D46000010B503681C8CE40784B015D50B46017A012916D99E
:204A2000417B00F10C0481B1817B605C91060CBF0124002401A9CDE901320394FEF73CFCCD
:204A400004B010BD082004B010BD0B78FFDE00235B78FFDE0368D3F880007047F0B504687B
:204A6000238CDB0783B022D50546002016460F4600F0D0FEA26F42B9636AE3B111240020DF
:204A800000F0D0FE204603B0F0BD964228BF1646616F3246384611F0C1FBD4E91D239B1B41
:204AA0003244C4E91D23C4F880600024E7E70824204603B0F0BDC4E909762A7A012A12D92D
:204AC000697B012905F10C020FD9AB7B0849009113440C34587801946946FEF701FC041E15
:204AE00008BF9224CBE75B78FFDE1B78FFDE00BF293A0000002070472DE9F04F4B6885B031
:204B0000CDE900020C46002B71D007F007FBE568019B9D4228BF1D468146002D7CD04FF095
:204B2000000A5646D3464FF00108D4E90113AB421F4628BF2F46E9B13A4609EB060011F0DA
:204B40006DFBD4E90223D21BDB1BC4E90223C4F804B0ED1B3E442AB3002B08BF4FF0000846
:204B6000002DE2D1009BC3F800905E60404605B0BDE8F08FABB120463B4650F8101B4A68EA
:204B8000D2F804A009EB0602D047D4E90223D21BDB1BC4E90223ED1B3E445AB14FF0010A1E
:204BA000DAE7E368BAF1000F04D15BB99846002DBBD1D7E722681268126822604FF0010AA7
:204BC000002BF3D02168F1B1CDF808B003E0A36821680133A3604B6800225F6802A8012327
:204BE000B8470028F3D12061002D9ED1BAE70B681B681B68002B88D18B68002B85D1036038
:204C000043609846B2E76160002EABD0019BB34288BF4FF00008A5E72E464FF00108A1E721
:204C2000054B0528187004D0044A137823F0020313700348FEF7F2BBB1280020B228002047
:204C40006866010008B50020FEF7CAFABDE808408020FEF7C5BA00BF08B50020FEF7D4FA8F
:204C6000BDE808408020FEF7CFBA00BF70B5C38893421E4628BF1646934284B00D4612D838
:204C8000002400200394CDE9015600F0C3FD01A98020FEF711FB044688B1002000F0C2FDDF
:204CA000204604B070BD8020144607F02BF9B4FBF0F202FB1044B4FA84F46409E1E707F064
:204CC00007FB80280BD1094A094B92E8030083E80300002000F0A6FD204604B070BD0020A2
:204CE00000F0A0FD1024204604B070BDA0660100780800202DE9F04F0B780E2B89B018D8CB
:204D0000F3B1013B0D2B1BD8DFE803F01F0E281A354C1A1A1A1A0E666F07B24B1B78012BD0
:204D200002D00120FFF77CFF0024204609B0BDE8F08F852B04D1AB4B1B78032B00F04081BB
:204D40000624204609B0BDE8F08FA64B1B78032BF6D00320FFF764FF0624E6E7A24805F01C
:204D60009BFA0028E0D0A14B01221A60BFF36F8FBFF34F8FD8E705230DF115008DF814303A
:204D800007F00EFA9DF81530994E002203F01F043260032C00F2B980DFE814F0E800B900C3
:204DA00099008D00C87803280D46C9D0904E3368002B00F0038100227168326098470446A8
:204DC00000287ED13368002B00F00581AB78002BAAD107F007FAA8E7824B1B78002BA3D0D2
:204DE0000020FFF71DFF00249FE74FF08043D3F8383413F0010F7B4B1B7806D0022B93D0CC
:204E00000220FFF70DFF00248FE7012B89D18BE7BDF81B30002B00F0D880092B28BF092322
:204E20009946FEF7F3F90546002800F0DB81BB464FF0090ACDF80CB04FF0000801E008F1FE
:204E400001086A68012357682946002203A8B8470028F4D12A682B7A15681C44C244E4B2BC
:204E6000002DE7D1634D644928464A4611F0D6F92C71A5F802A0FEF7ABF918B1EB7943F04D
:204E80002003EB71FEF7C2F95C4BBDF81B2018600020C3E90159DA6000F0BCFC584980208B
:204EA000FEF71EFA0446002800F09F81002000F0B9FC062C05D105A8FEF7E8F90446002C9D
:204EC00073D007F0FBF9204609B0BDE8F08F9DF81900020707D005A9FEF7C2F906280446FD
:204EE000EDD19DF8153013F0600F0ED19DF816303C4A9DF819401278012B00F0B980032B6D
:204F000000F0A680002B00F0C6800624D9E79DF8190003A9FEF780F90546002859D09DF837
:204F20000C1005AAFEF798F906280446C7D19DF8152012F0600FC4D12A4B9DF80C101B7887
:204F4000D20940F014819DF816200B2AB9D1052B40F0B280BDF81730FF2B00F2FC809DF86C
:204F600017202846FEF7D0F90446A8E713F0600FC3F341179FD1DB0948D19DF81630032BFF
:204F800000F09C80092B00F0A880012B93D1BDF81730012B8FD1FEF71BF9002800F0D98027
:204FA000184A137823F00203137033686BB107F08FF9044600287FF4B7AE0AE70E2480E75F
:204FC0000420FFF72DFE0624AFE607F06DF90024ABE6102475E70C4B1B68082B33D007F024
:204FE00063F9A2E6B1280020800800205C70024078080020840800206C6601006008002077
:20500000A8660100B2280020300100109DF81620062A00F08780082A73D0002A7FF44BAF48
:205020007B497C4B09781A80890744BF02221A7078490DF115000222FFF718FE0446062C09
:205040007FF43DAF37E7744B1B68002BC7D16BE625073FF55AAFBDF81730002B7FF455AF76
:20506000052A01D0200727D1204607F05BF89CE721073FF54AAFBDF81730002B7FF445AFFB
:20508000052A01D0230717D1204607F079F8204607F0B4FB89E7052A01D027070CD1204643
:2050A00007F04CF85B49034602220DF115000B80FFF7DCFD044602E7082402E7BDF81730F3
:2050C000012B7FF4F8AEFEF783F8002841D0504A137843F00203137067E7504C2378043B3E
:2050E000012BE9D89DF81730BBB3012B33D1FEF767F92378052B3FF458AF0520FFF790FD47
:2051000053E7464A1278052A47D0042A7FF4D3AE404B1F703F490DF115000122FFF7A6FD62
:2051200004468CE79DF81830022B3FF471AE032B36D0012B7FF4BFAEBDF81B30002B3FF4B8
:2051400044AF37490DF115001222FFF78FFD044675E70F24B5E60724B3E6FEF749F9237809
:20516000042B3FF422AF0420FFF75AFD1DE79DF816705FB30A2F7FF4A4AE052B9CD1284651
:205180000192FEF717F92349019A03460B700DF11500FFF76BFD044691E61E4A1370B9E7EF
:2051A000BDF81B30002B3FF410AFBDF819109DF8170000F01DFB014600283FF47CAE0A78F2
:2051C0000DF11500FFF752FD044638E7052B7FF473AF10490DF1150002220F80FFF746FDF1
:2051E00004466CE64FF0090A3CE607F071F8802808D10C4B93E8030086E80300204600F022
:2052000011FBD2E6204600F00DFB102459E600BFB22800208408002034010010B128002056
:205220008C660100A066010038B505460C4607F04FF8A84207D194E80300044A82E80300B0
:205240000023184638BD1023184638BD7808002008B1402303600148704700BF84080020C8
:20526000F0B40D7A0DB101F109050468002C59D06FF4AB763444142C00F24A81142C00F259
:205280004781DFE814F05400E700EE00F500FC000301090110011701450145011E01250159
:2052A0002C0145013B0033012700390115003F0101250024002A40F0DB818A8AAB424FEA1C
:2052C0001222027140F2338140F26D1303600120F0BC704701250024002A40F0CD814A8AE2
:2052E000AB424FEA1222027140F226816C1C8A8A0271A34240F27B81651CDEE70125002456
:20530000002A40F0B7810A8AAB424FEA1222027140F217816C1C4A8A0271A34240F26C81FD
:20532000651CDCE709240471002B00F0F680002A00F0A48104791470012B4FF004040471CE
:2053400040F2F0800227012694559F422D78057180F089817E1C0024B342D555047140F278
:205360007D812546771C0024BB429555047140F2708125467E1CFF24B342D555047140F2A0
:2053800063812546771C0124BB429555047140F2568125463E190124B342D555047140F2F4
:2053A00049812546371900249F429555047180F03C8125467E1C09249E42D555047180F0B6
:2053C0002F812546771C21249F429555047180F0228126467C1C09259C42D655057180F066
:2053E00015811619013435700E7C0671A34240F20881651C16550E8A9D424FEA162606711E
:2054000080F09F8057196C1C3E708E7C06719C4280F0F280651C16554E8A9D424FEA1626FE
:20542000067180F0898057196C1C3E700E7D0671A34240F2DC80651C1655898A9D424FEA4A
:205440001121017173D22A44117040F26D13036001203DE7002A00F0B38004790127002602
:2054600072E7002A00F0A58005790126002772E7002A00F0978005790127002673E7002AEE
:2054800000F0898005790126002774E7002A5DD005790127002676E7002A00F09E800579B6
:2054A0000126002777E7002A00F0958005790127002678E7002A00F08C80057901260027F4
:2054C00079E7002A00F083800579012700267AE7002A00F08A800679012400277BE7002AA7
:2054E00000F081800579164601247CE7002A78D006791746012487E7002A70D00679174632
:20550000012492E7002A3FF4DFAE017911709CE7002303601846F0BC704740F2571303603F
:205520000120F8E74FF4AC7303600120F3E740F26B1303600120EEE740F269130360012070
:20554000E9E740F2671303600120E4E701240122A342027173D914440122A342027169D97F
:20556000144400229C4202715FD2013409229C42027155D2013421229C4202714BD201343C
:2055800009229C42027141D201340A8A0271A34237D9651CB7E60124FF229C42027153D271
:2055A0000134D4E701240022A342027151D90134F2E701240022A34202714FD90134F2E74F
:2055C00001242A780271A3424DD90134F2E70124D1E70124CAE70124C3E70124BCE7012409
:2055E00085E6012497E60124CFE70124C8E74FF4B573036001208EE74FF4B473036001209D
:2056000089E74FF4B3730360012084E74FF4B273036001207FE740F26313036001207AE7E3
:205620004FF4B1730360012075E740F25F130360012070E74FF4AF73036001206BE740F237
:205640005D130360012066E74FF4AE730360012061E740F25B13036001205CE74FF4AD730F
:205660000360012057E740F259130360012052E70679E1E60679BDE60679CCE60422012B22
:2056800002717FF64FAF02249BE700BF0B780E2B0BD8DFE803F0080808080A0C080A0A0A08
:2056A0000A08080808000020704706207047F0B54B78DA0985B00C46064611D15B09012B7C
:2056C00002D0062005B0F0BD8C78002CF9D102681373036A002B3AD0214698472046F1E760
:2056E00013F0600FC3F3411215D0012AE9D18B78072B07D0082BE4D1F268481CB169FFF7A3
:20570000B5FADFE7B1F80720182ADAD1C169601CFFF7ACFAD6E703F01F03012BD1D18D7870
:20572000062DCED103A80292FFF792FD02AA00920746E278217930463B46FDF7A5FB05289C
:20574000BFD0029A3946601CFFF790FABAE71846B8E700BF70B54FF0805286B0D2F8A83038
:20576000D2F8A42000926FEA83436FEA93430B4A0B4E9BB202A80D210BF090FD02AD00248D
:2057800004E015F8013B06F8013B013402A810F07FFD8442F5D306B070BD00BFC4660100EC
:2057A000D428002038B5114B53F8204023780BB9A01C38BD0020FFF74BFD217891B1224628
:2057C000C4F101055319DCB2234620F8141012F8011F0029F6D101335B00DBB243F440734F
:2057E000038038BD40F20233FAE700BF2C67010040B1052808D8054A105C28B1044B53F86A
:2058000020300BB1FFF7CEBF00207047446701002C67010072B6024A136801331360704795
:20582000C4080020034A1368013B136003B962B6704700BFC408002010B50446006830B177
:20584000002107F03FFD54F8040F0028F8D110BD2DE9F043038883B0044643B1B3F5867FE5
:205860000CD1822910D0012003B0BDE8F0834FF486730120238003B0BDE8F0830023038063
:20588000032003B0BDE8F08303F090FABFF35F8F19491A4B0E6800220A601F781A70FFB262
:2058A000BFF35F8F164D03F085FA28680028DED0DFF85090DFF8508003E055F8040F002844
:2058C000D5D090F84A3026FA03F3DA07F5D590F8493047FA03F3DB07EFD502F057FD002814
:2058E000EBD02B68D9F80020009218464246022102F0EAFCE1E700BFD8080020B328002074
:2059000060000020142A0020A959000010B50C4A90F84B30126882B001330092044680F855
:205920004B30084A03468021203002F0CDFC064B19782246002002B0BDE8104007F046BD9A
:20594000142A00200D5900002933002010B4094A094C13681943116021780346012202FA52
:2059600003F30B43DBB2237004485DF8044B07F05BBD00BFD8080020B32800206800002082
:2059800010B5044690F84A1090F8490003F0D0F910B994F8480010BD01280ABF94F8480059
:2059A000002080F0010010BD70B582B0044602F0EDFC08B902B070BD04F12006304602F0EA
:2059C000E5FC05462046FFF7DBFF01280FD00028F0D1002DEED1304602F0BEFC0D4B2246A6
:2059E0002846197802B0BDE8704007F0EFBC002DE0D0094B094A1B68009300253046234661
:205A000084F84B507E2102F05FFC054B28462246E7E700BF28330020142A00200D59000091
:205A20002A330020F8B507F045FC304B304C187007F040FC2F4B304F187007F03BFC2F492B
:205A400022682F4B08700025FF2139727B60FD60002A42D02B4E09E091F84A00F9683A7224
:205A6000834054F8042F0B43FB60B2B392F84A3092F84910526C03F01F0343EA41131F2B51
:205A8000C6BF03F01F0331464FF0A04103F5E07342F08C0241F82350236893F84A1093F823
:205AA000490003F003F9226892F84A3092F8490003F01F0343EA4010012104F05FFE2168BF
:205AC000387A91F8492082424FF00103C4D0FF28C2D054F8042F002AC8D10B48002107F021
:205AE000F1FBBDE8F840044803F036B92A3300206000002028330020C808002029330020CB
:205B00004D590000000300506800002070B504460088572886B00D464FD00BD95D2879D034
:205B200074286FD14C4DEB68F3B174232380012006B070BD00286AD0452863D1474A484897
:205B4000152101F01DFA474B1E68474B1B68022B00DC86B1012E66D0444807F075FC4523D9
:205B60000120238006B070BD414B1B6A9847284602F00EFDD9E7022003F078F9304603F074
:205B80001DF9334602223B48314601F0B7FB3A49384801F04FFF394B93E8070003AB03C3F9
:205BA00003A91A703348082201F0ACFF344807F04BFC344A572396842380334B0093274A7D
:205BC0002C4B3048294600F017F9012829D9254B1E68002EB9D1244D2C4A2D492D4807F0C5
:205BE000CDFA29682C48032207F0C8FA2B681A4801334FF420712B6002F0C0FC5D232380A2
:205C0000012095E700230320238006B070BD07F099FCA4E7104BDB68002B88D1114B1E6800
:205C200093E7002084E7022003F05AF9042003F01DF9002003F0EEF8184807F005FC0F4921
:205C40000B4800F0C3FB164807F0FEFB02484FF4C07102F093FC68E708090020CC09002041
:205C600078670100180900201C0900202C680100A401002020090020906701002C6D010089
:205C8000A4670100DC080020A55C0000C8670100CC670100D4670100E4670100006801009E
:205CA00018680100F0B583B000AF40B3391D044601F01CFF00F1080323F0070305466E4625
:205CC000ADEB030D79682A46684610F0A7FA00230DF80530A179114807F050FAA379412BE3
:205CE00006D00F4807F0B0FB0C37B546BD46F0BD0C4807F0A9FB0C4B01221A60F4E70B4AD4
:205D00000B490C4807F03AFA0B4807F09DFB0A4807F09AFB0C37BD46F0BD00BF7468010061
:205D20009C6801008468010018090020C86701005C680100D46701006068010030B5174BEF
:205D400083B000221A6004F0D9FA00BB002004F0F1FA134B134A93E80300FF250090ADF861
:205D60000410062400231048ADF8005069468DF802408DF8043004F077FF58B901210A4857
:205D800004F0C6FF084804F0B7FF03B030BDFDF713F8DBE7FDF710F8F0E700BFE009002054
:205DA000C8680100D95D0000D0680100014B1868704700BFE009002008B5064A136801333C
:205DC000136002F0EFFB00B908BDBDE8084002F0CFBB00BFE0090020042800D07047FFF71C
:205DE000EBBF00BF014B1868C0097047E00900204160806A07F018BBF0B5858C83B004465D
:205E000017461E464DB36A2D22D182294AD14568002D62D00023009304F1180204F1140196
:205E2000284601F02DFED4E90431227E101E18BF0120994284F8200046D0637E0133DBB2F1
:205E40006376002A3AD0032B0ED9042384F820300023A384032003B0F0BD244B4560C0E9A3
:205E600004551B680583836201F040FA3946308100F07EFF2060F0B11D4BC36323681C6457
:205E8000216991B921683046463101F045FA2368A3F84400206800F085FF6A230120A3844D
:205EA00003B0F0BD012003B0F0BD40230022304601F0FEFDE6E7A0840220CCE7032BC4D88A
:205EC000022384F82030C3E7089B606898472169227E637E01312161B3E7032380F8203096
:205EE0002846089B9847A5840220B4E7142A0020F15D000010B5846882B01CB194F90830AB
:205F0000002B01DB02B010BD236A002BFAD01A68002AF7D00749097831B11B6A23B1019069
:205F20009847236A01981A68002302B0BDE8104000F0ACBEB42800202DE9F047124C82B0DD
:205F40002468DDF828A08CB106460F4691469846656843464A463946304625B1CDF800A06F
:205F6000A847054638B92468002CF1D10025284602B0BDE8F087B379012BF8D13A46314603
:205F8000002000F093FCF2E7E40900202DE9F04F2DED028BA64CA74E8BB00546204602911A
:205FA00001F034FBC4F8A0500346307008BBA279013A032A5AD9636823F07F4323F0FF03FE
:205FC000002B50D06379032B00F02D81208900F051FF48B1D0E90F8900F048FFB8F1000FAC
:205FE00002D093494846C0476379012B6FD933784BB34FF00008C22B2BD0DFF854924046F3
:2060000000F034FF3278C32A6ED0BF2A84BFA022327002212389864801F070F9D9F8001020
:206020000391084610F034F903990246804801F069FD02997E4801F06FF9029982B2284657
:2060400001F030F8337818460BB0BDEC028BBDE8F08F404600F00AFF337818460BB0BDEC1D
:20606000028BBDE8F08FC3233370AFE703902946208900F07DFE8046002850D0039B6279B3
:206080000893CDE906334023ADF81630002A3DD1238969484522022101F030F9A27A002AA9
:2060A00040F0BC8007AB009361480DF11603002206A901F0E5FCF8B9089B002B37DADFF865
:2060C00090915E4BC9F800308223337097E7E37CC3F380185B060BD55549284600F0F6F966
:2060E0003378002BAFD084E700223270032191E73378002BA7D07EE7BDF81620079B0893A6
:20610000402A28BF4022ADF81620D6E701F0EEF8452203460121484801F0F0F8BEE7DFF8A6
:206120003091474BC9F80030A323337067E7BDF8163041493E4808AF08F18402009708EE96
:20614000903A08EE102AFFF7F7FE034600284CD13748099309A901F063FC3A4BD3F80090CF
:206160008246B9F1000F76D0099B9B462B464D4699460AE006DD2A7AD30603D51BF800209B
:206180002F2A08D02D68002D64D06F68384610F07FF88245EED102465946384610F080F8A9
:2061A0000028EFD1A2794B46511EA946012A1D464FF0010303FA01F300F0BE80990740F12C
:2061C000A680D9F814A0BAF1000F00F0A08008AB1748009318EE102A18EE903A1649D0471F
:2061E00099F80830580600F1BD803378002B7FF402AFA37D190756D5DFF83C9099F906307A
:20620000002B50DB99F816301A074CD4DFF840900D4BC9F80030A1233370F0E60B49064841
:2062200001F0EAFB3EE72189284600F019FACDE6EC090020B6280020980A0020D86801007F
:20624000F8680100E8090020E8680100F7090020E40000204D465948842101F0C7FB57482C
:20626000842101F0C3FB3378002B7FF4C4AE534808F1460101F050F880B2A8F8440020B90C
:20628000C123DFF844913370B9E63378002B7FF4B2AE404600F086FD337818460BB0BDEC1D
:2062A000028BBDE8F08F637D089AD91115D1002ADDD0DFF80891013218BF01224846402376
:2062C00001F0F6FBB9F8A420D9F8A810402A28BF4022484601F016FCC5E7079B9A4232D06E
:2062E0000132069944D0BDF81630DFF8D0900122324801F0DDFBBDF81620B9F8A4309342DB
:20630000B1D9D9F8A8102D4801F0FCFBABE75A0705D5D9F818A0BAF1000F7FF458AF1F075D
:2063200005D5D9F81CA0BAF1000F7FF450AF8521224801F05BFB92E7D9F810A0BAF1000FBF
:206340007FF445AF3AE7DFF87490B9F8A400824219D382231A4989F8063048460F2201F066
:20636000D1FB80E7154A1749484600F09FFA3CE7DFF84890BDF81630B9F8A4209A4294BFA3
:2063800000220122B4E7BDF816300699821A9A4294BF00220122484601F08AFB0798B9F81F
:2063A000A430BDF81620D9F8A8101B1A9A42014428BF1A46484601F0A5FB54E7980A0020DC
:2063C000D8680100EC090020E400002010B50446416001460C4802F005FF94F90830002B32
:2063E00000DB10BD206A0028FBD0036A002BF8D00268002AF5D0054BC0E903340830BDE8B2
:206400001040002300F042BCE8090020F55E000038B50A4A137803B138BD094C094D236014
:2064200009490A482B6001241470FFF7CFFF00F033FEBDE8384000F051BF00BFB4280020C7
:20644000E4090020E80900200869010094000020014B1868704700BFE809002000B100688C
:20646000704700BF70B50C4D064613460C4600223146284600F042FF00F008FE014628464E
:2064800000F04AFF054600F001FEAAB201462046BDE8704000F006BE480B002070B50A4B8A
:2064A0001C687CB106460D4601E0246854B1237FAB42FAD12A46314604F11D000FF0A0FE2A
:2064C0000028F2D1204670BD440B002070B50C46897A82B009B902B070BD054604F10B0037
:2064E000FFF7DCFF064628B36379DBB1F56A002DF1D0A379413B3E2B1AD8E37C5B060BD55C
:2065000001A9204601F0AAFA019B326B9A42E2D0F56A3363012200E0022221463046A84727
:2065200002B070BD228929460220FFF79BFFDDE70322F2E7228929460320FFF793FFCAE778
:2065400000B583B001460190044802F0C1FF0199034803B05DF804EB02F090BE88000020B9
:20656000F40B002070B50D4B1C68A4B10546002601E024686CB1294604F1180000F0EAFC59
:206580000028F6D02046FFF7DBFF24680136002CF1D1304670BD2646304670BDF40B002055
:2065A0002DE9F041164B1C682CB305460F4616464FF0000801E02468D4B1294604F118001F
:2065C00000F0C8FC0028F6D094F82C30B342F2D13246394604F12D000FF012FE0028EAD16E
:2065E0002046FFF7ADFF246808F10108002CE4D14046BDE8F081A0464046BDE8F08100BF47
:20660000F40B00202DE9F041144B1C680CB306460F464FF00008251D314604F1180016B1FD
:2066200000F098FC78B1BD42284607D00FF030FE3946024628460FF0E3FD20B92046FFF7F3
:206640007FFF08F101082468002CE4D14046BDE8F081A0464046BDE8F08100BFF40B002051
:20666000F8B50E4B1C68ACB105460E460027294604F1180000F06EFC10B1E38EB34204D09C
:206680002468002CF3D13846F8BD2046FFF758FF0137F5E727463846F8BD00BFF40B002006
:2066A0002DE9F04F2DED028B8046E1B00C46002800F0C8804168029108460FF0E9FD05AEB3
:2066C00005460299304613220FF0FCFD122D40F2918000240DF1280A2346504645220121D3
:2066E0000DF1D40BF47400F009FE234601222146584600F003FE3146584601F09BF93046CC
:206700000FF0C6FD98F80830C3F3001305460293604B1C68002C68D008EE106A09E005DD78
:20672000029B1BB163191B792F2B08D02468002C5BD0271D38460FF0ABFDA842EFD118EEB2
:20674000100A39462A460FF0ABFD81460028EDD100F0CCFD04F1180100F00AFB07460028AB
:20676000E4D0A26B4C4B4D4903FB02124C4BB3EBB20F28BF8AF805908088E08604AB009375
:2067800007F184024FF0000CAAF808004023514658460392CDF810C0FFF7CEFB58B9B8F14B
:2067A000000F73D004AB0093039AD8F81060402351465846B0479AF90630002B24DA94F85B
:2067C0002C2004F12D01504601F016F9049A32BB07F14601504600F09FFDA7F84400384667
:2067E00000F0E0FA2468002CA3D161B0BDEC028BBDE8F08F002C3FF46CAF2146C5F113028C
:2068000070190FF05FFD64E7A16B4B1CA363504601F02EF9A36B23F07F43A363CFE7013250
:2068200018BF012240230021504601F041F9BAF8A420DAF8A810402A28BF4022504601F0DF
:2068400061F9C5E70029D0D005AE132230460DF1280A0FF037FD0DF1D40B50464346452245
:20686000012186F8138000F049FD434601225846414600F043FD3146584601F0DBF830465F
:206880000FF006FD01230546029341E780238AF8063094E7F40B0020CDCCCCCC98999919C1
:2068A000CCCCCC0C0021FFF7FBBE00BF8B79012B00D070472DE9F04792F90630002B82B0B7
:2068C000154650DBCB7C5B060C464CD5D1F8A070002F48D04B6E4BB1012B44D18A7A38467F
:2068E0000B3102B0BDE8F047FFF75ABE096E0191384694F80AA0D4F85C80FFF783FE20487C
:2069000002F0CAFD064688B3B8F1120FC146C4BF4FF01308C146B144424601994FF0000824
:2069200004300FF07BFC394606F1180089F8048000F000FB524604F10B0186F82CA006F155
:206940002D000FF06BFC0F48A6F83680314602F049FCB16B4B1CB363284601F089F8B36BB4
:2069600023F07F43B36302B0BDE8F0870649A32328461022AB7102B0BDE8F04701F0C2B894
:2069800088000020F40B00201C6901002DE9F04F2DED028B83B008EE101ADDF8389001922B
:2069A0009846FFF755FD002800F0B6800025D9F800B006462C46A34508D8454512D2019B2D
:2069C0004FF03C025A55D9F800B00135631C5B4508D3454506D2019B4FF02F025A55D9F8EC
:2069E00000B00135D6F804A050460FF051FC023427185F4558D801D145456DD3D6F80CB0EE
:206A00007C1CBBF1000F17D09BF80030A3B1D9F800A0A24509D8454507D2019A3B235355E8
:206A2000D6F80CB0D9F800A0013558460FF030FC02373C18544512D8454504D9D9F80030E4
:206A4000621B9A4271D83046FFF708FD0646002847D0DCB9D9F800B0A345B7D8ADE70198DE
:206A6000384AAAEB070308F10101002BACBF5B440BF10003491B28440AF010FC054445451D
:206A800053D83046FFF7EAFC0646B8B3D9F800B0A34507D8454505D2019A2C235355D9F8B6
:206AA00000B00135013486E70198264AABEB040B08F10101BBF1000FACBF0AEB0B030AF181
:206AC0000003491B28440AF0E9FB0544454508D2D9F800309F4291D3019A3E235355013538
:206AE0008CE715BB5CB9BEB1D9F800304344C9F8003003B0BDEC028BBDE8F08FADB9822140
:206B000018EE100A00F072FF18EE100A0E490F2200F0F8FF002EE7D14FF0FF33C9F800301D
:206B200003B0BDEC028BBDE8F08F019918EE100A2A4600F0E7FF18EE100A282100F068FF88
:206B4000D1E700BF30690100D8680100014806F06BBC00BFB80000202DE93048FFF726F943
:206B60000E4B1A68821A04D10D4BD3E90001BDE830880B4C18604FF47A71A2FB01BCD4E943
:206B800000254FEADB1040EA4C6080184FEADC1145EB0101C4E90001BDE83088FC0B0020B4
:206BA000680400200148002106F08CBBB8000020074B0848084A1B6810B4002101240470D5
:206BC000116013B15DF8044B18475DF8044B704750690100B5280020100C00202DE9F047E2
:206BE0001E4B1B7882B0054643B3DFF874A029465046DAF8007002F041FBDAF8001019B318
:206C0000D5E90489002603E00C680E46F4B12146D1E90423994508BF9045F5D22A46104862
:206C2000314602F04FFBDAF80050AF4209D00D4B9B68019302B0BDE8F0471847FFF7B8FF2C
:206C4000D3E702B0BDE8F087002DEED02A46044802F038FBDAF80050E7E700BFB528002034
:206C6000100C002050690100064B10B55B6804469847C4E9040121460348BDE8104002F0D1
:206C8000FDBA00BF50690100100C0020084970B5496805461E4614468847241846EB01011A
:206CA000C5E904412846BDE87040FFF797BF00BF5069010038B50B4B1C687CB10A4B5B684D
:206CC0009847D4E90445A94208BFA04202D30020014638BD201A65EB010138BD4EF66020C5
:206CE000002138BD100C002050690100F8B5134F134E7C68A04735683DB102460B46D5E96B
:206D000004018B4208BF824201D20020F8BD2946304602F0B3FA6B680BB128469847BB68EB
:206D200098473368002BF0D0D3E90467A047B94208BFB0422CBF01200020F8BD5069010091
:206D4000100C002000B583B0014608300191FFF78BFF0199044802F091FA0199034803B083
:206D60005DF804EB02F0B4BB140C0020C800002070B5064609480D4602F08EFB044658B163
:206D80000023868080F824302946263000F0D2F80348214602F026FA204670BDC800002040
:206DA000140C00202DE9F04190F8463013F0300F0446C3F3011526D190F82430042B13D809
:206DC000B0F8442000F14601263000F06BF994F8243023B3226A5200226204F1080000238D
:206DE000BDE8F041FFF752BFD0E90F672630FFF7B9FB2046FFF7A6FF46B329463846334627
:206E0000BDE8F0411847B0F8442000F14601263000F048F92046BDE8F041FFF793BF0C4B97
:206E2000C4E9033406F088FB0A4BA3FB00239B0A40F2DD5202FB130202F6B832226204F16C
:206E400008000023BDE8F041FFF720BFBDE8F081596E0000B76FA5AE806830B190F8243061
:206E6000013380F82430FFF79DBF704708B1FFF769BF7047044B02E09A88824202D01B680F
:206E8000002BF9D118467047140C0020F8B50288044662B140F2B9139A4217D11D4B1B7857
:206EA0008B4217D040F2B91323800120F8BD114610460BF0E9F8184B186038B343F21633DA
:206EC000038240F2B91323800120EFE7002303800320F8BD114B1B789B07E3D5104E114F10
:206EE000114DB7F800C0114F96E80F00203685E80F003CF806C00E4E3A883168A5F810C0E8
:206F000000232846AB74FFF741F8CBE720800220F8BD00BF2F330020300C0020103200206A
:206F2000182D0020AA2800201C0C0020002D0020183200208B684A6830B40C68CD68C560A4
:206F40000460426083600B8A03828B7C837430BC704700BF38B5102205460C460FF050F9CA
:206F600058B92A8A238A9A4200D038BDA87CA37CC01AB0FA80F0400938BD002038BD00BFB5
:206F80002DE9F0470C1E8AB08046174636DD0346002502E00135AC4230D0994613F8012B80
:206FA0005B2AF7D1AC4229DD08EB05032E46B2460136B44222D013F8012F5D2AF7D1314906
:206FC000062240460FF06CF9B0FA80F04009AE42B8741CDD484639460CF0B0FFB8B10AF10B
:206FE000020A08EB0A0018F80A303A2B2CD0BB7C1BB343F216433B8201200BE021490622EF
:2070000040460FF04DF9B0FA80F35B09BB74272C03D900200AB0BDE8F08741462246684633
:207020000FF0FCF80AAB1C4468460023394604F8283C0CF083FF0028ECD043F21633012097
:207040003B820AB0BDE8F087023CA61BCFD00022114604E001318E4203EB4C0209D010F883
:20706000013F303BDDB2092D02EB820CF2D90029BDD0054BC2F3072103EA02230B433B825A
:207080000120C7E75C69010000FFFF00014B1868704700BF183200200148002106F012B986
:2070A000D400002070B582B0B8B11446028848F2FE039A420E46054603D00A4B5B6A9847B6
:2070C00058B1094A2B8A10680093314622462B460CF00EFA204602B070BD4FF0FF34204623
:2070E00002B070BDE06D0100300C00200C2830B440D9B0F5867F94BF6FF02F046FF01F04C5
:207100000C2935D9B1F5867F94BF0D230E232343B0F5867F137016D96FF4867543191B0A6C
:207120000D385370907002230320B1F5867F15D96FF486740C19D518240A0D391454A97002
:20714000D81C30BC70470C280FD90D38B1F5867F50704FF001034FF00200E9D80C29F0D989
:207160000D39115430BC0130704701200023DCE74BB2CCE703015CB2C2E700BF2DE9F04118
:207180001E0C13F07F474FEA06461C4615460B4614BF01210021CEB1013124F0FF08023154
:2071A000C01A2A46FFF7A2FFCFB1230E2B54421C1EB3230CAB540230B8F1000F02D0230A78
:2071C0002B5401302C540130BDE8F08134F0FF08E5D14CB9BDE8F041C01AFFF787BF6EB147
:2071E000230C2B540130EAE70131C01AFFF77EFF002FDAD1002CE7D0E4E71046B8F1000FCA
:20720000DDD1002CE0D0DDE7F8B50E689DF818700C461D4616B902602360F8BD03689F5563
:207220000B6801330B600068114618442A460FF003F823682B442360F8BD00BFF8B5069D76
:20724000401A29461F46FFF751FF3946044610182A460EF0E3FF2819F8BD00BF2DE9F04F6F
:2072600083B092460C9A9DF834400194013200249846834699460092274625468E4604E0C0
:20728000009B01349C42274623D818F807C0019B08EB0706A6EB09069C450AEB0502ABEB52
:2072A0000E00314602D00C9BBB42E9D1FFF71EFF054449460AEB050032460EF0AFFF0134DB
:2072C000009B08EB040901349C423544DE462746DBD9284603B0BDE8F08F00BF08B506F08B
:2072E0002BF9014B188008BD9C280020024B1888013080B2188070479C280020F8B5044663
:207300000F4616461D46AC2200210EF0AFFF6771A6712581F8BD00BFF0B501220023016069
:2073200002710B7002680F461378017943EA811313700268437911781B0103F030030B4318
:2073400013700268837A117803F00F030B431370036882795A70038902681B0A937003682B
:207360000289DA70837983B00446002B00F040810368827A1D1D62B16FF00301C91A00F1F8
:207380000B0313F8012B05F8012BA67A6A189642F7D8E37C9807C3F340010CD594F86A303A
:2073A00000932A4604F16B0300210120FFF746FFE37C054401211A0709D5236C0093636C30
:2073C0002A460320FFF73AFFE37C05440321DE060BD594F8243000932A4604F12503042037
:2073E000FFF72CFFE37C05440421980607D500232A460520FFF7C2FEE37C054405215A0689
:2074000007D5636E2A460620FFF7B8FEE37C05440621DB0907D02A46B4F850300720FFF73A
:20742000ADFE07210544237DDE070BD5A36C2F22CDE900320820E36C2A46FFF70FFF237DF8
:207440000544082118070BD5E36D2F22CDE900320B20236E2A46FFF701FF237D05440B21FB
:20746000DA0607D5A38B2A460C20FFF787FE237D05440C215E0607D5236A2A460E20FFF794
:207480007DFE237D05440E21DB090CD0D4F894302622CDE900320F202A46D4F89830FFF7B0
:2074A000DDFE0F210544637D980708D5B4F868302A461120FFF762FE637D05441121DA06A6
:2074C0000BD5636D2622CDE900321420A36D2A46FFF7C4FE637D05441421DB091AD0636F62
:2074E00094F878201B01002A40F08580B4F87A2000201209461C52088446B0B2FAD118B1F0
:207500000CF00F0C43EA0C032A461720FFF736FE17210544A37D1E071BD5D4F8803094F889
:2075200084201B01002A69D1B4F8862000201209461C52088446B0B2FAD118B10CF00F0C07
:2075400043EA0C032A461B20FFF718FEA37D05441B21D80607D52A46D4F88C301C20FFF7AF
:207560000DFE1C210544E37D1A0709D5236B0093636B2A462320FFF761FEE37D0544232137
:20758000DB0908D0A36B00932A46E36B2720FFF755FE27210544A37EDB0611D42368EB1A38
:2075A0003E2B18DCB4F8A420E2B9D4F8A81028460EF042FEB4F8A400ED1B284403B0F0BD0F
:2075C000D4F890302A463C20FFF7D8FD23680544EB1A3E2BE6DD0B4B0B4A002020601A60BE
:2075E00003B0F0BDFF2305F8013BB4F8A420DCE7042003B0F0BD43F0080377E743F008033F
:2076000092E700BFE400002070690100032A40F2CC802DE9F04704460D4682B00021914695
:207620000430A8220EF022FE256095F800804FEA981884F804802B78C3F3011363712A78D0
:2076400002F00F02A2726B78A371A978EB78B8F1010F43EA012323817CD1082A00F2AC804D
:20766000291D8E1805EB090A564576D804F10B000EF0D4FD00275645C4F81370C4F817701F
:2076800080F0A580337803F0F002F02A00F08781711C8A454FEA131003F00F035DD90D288B
:2076A0005FD00E2868D00D2B62D00E2B70D0CE18B24552D307443C2F4FD804EBD70C07F0A2
:2076C00007029CF8130008FA02F20243781E8CF8132002463B2A74D8DFE812F07B007300C2
:2076E0008600890094009700A400B30073007300BD00C7007300D500E2007300EC00730093
:207700007300FB007300730005017300730073002401450173007300730073007300730099
:2077200069007300730073006900730073007300730073007300730073007300730073002D
:207740007300730073007300730073007300730073005301A04BA14A1A60802002B0BDE883
:20776000F0877078B11C0D308A45F6D90D2B9CD111F8013B0D339AE77078B21C92454FEA91
:207780000020EAD9B27802F20D121044F11CEBE70E4616F8013BB2454FEA0323DDD94A782A
:2077A00002F20D121344023181E7802070478A4B8B4A1A60A520D1E7874B8A4A1A6080200C
:2077C000CCE7FB0700F10281B2453FF65BAF0020C4E7082B28BF08231A4684F86A3004F1CF
:2077E0006B000EF01BFDEFE7C4E91031ECE7082B28BF08231A4684F8243004F125000EF0E4
:207800000DFDE1E784F89C80DEE74BB1013BC8180139002311F8012F884242EA0323F9D1A5
:207820006366D1E753B1013BC8180139002311F8012F884242EA0323F9D19BB2A4F85030C2
:20784000C2E72F200A46009004F1480104F14C00FFF7DAFCB8E72F200A46009004F15C01E5
:2078600004F16000FFF7D0FCAEE753B1013BC8180139002311F8012F884242EA0323F9D1C0
:207880009BB2A383A0E74BB1013BC8180139002311F8012F884242EA0323F9D1236293E75B
:2078A00026200A46009004F1940104F19800FFF7ABFC89E753B1013BC8180139002311F8F8
:2078C000012F884242EA0323F9D19BB2A4F868307AE726200A46009004F1540104F15800F3
:2078E000FFF792FC70E7002B6CD0013B0B440020013911F8012F8B4242EA0020F9D100F055
:207900000703102120F00F02994089B202FA03F3C0F3C002000984F87820A4F87A10E36703
